{
  "_format": "hh-sol-artifact-1",
  "contractName": "MessToken",
  "sourceName": "src/contracts/messToken.sol",
  "abi": [
    {
      "inputs": [
        {
          "internalType": "address",
          "name": "initialOwner",
          "type": "address"
        }
      ],
      "stateMutability": "nonpayable",
      "type": "constructor"
    },
    {
      "inputs": [
        {
          "internalType": "address",
          "name": "sender",
          "type": "address"
        },
        {
          "internalType": "uint256",
          "name": "balance",
          "type": "uint256"
        },
        {
          "internalType": "uint256",
          "name": "needed",
          "type": "uint256"
        },
        {
          "internalType": "uint256",
          "name": "tokenId",
          "type": "uint256"
        }
      ],
      "name": "ERC1155InsufficientBalance",
      "type": "error"
    },
    {
      "inputs": [
        {
          "internalType": "address",
          "name": "approver",
          "type": "address"
        }
      ],
      "name": "ERC1155InvalidApprover",
      "type": "error"
    },
    {
      "inputs": [
        {
          "internalType": "uint256",
          "name": "idsLength",
          "type": "uint256"
        },
        {
          "internalType": "uint256",
          "name": "valuesLength",
          "type": "uint256"
        }
      ],
      "name": "ERC1155InvalidArrayLength",
      "type": "error"
    },
    {
      "inputs": [
        {
          "internalType": "address",
          "name": "operator",
          "type": "address"
        }
      ],
      "name": "ERC1155InvalidOperator",
      "type": "error"
    },
    {
      "inputs": [
        {
          "internalType": "address",
          "name": "receiver",
          "type": "address"
        }
      ],
      "name": "ERC1155InvalidReceiver",
      "type": "error"
    },
    {
      "inputs": [
        {
          "internalType": "address",
          "name": "sender",
          "type": "address"
        }
      ],
      "name": "ERC1155InvalidSender",
      "type": "error"
    },
    {
      "inputs": [
        {
          "internalType": "address",
          "name": "operator",
          "type": "address"
        },
        {
          "internalType": "address",
          "name": "owner",
          "type": "address"
        }
      ],
      "name": "ERC1155MissingApprovalForAll",
      "type": "error"
    },
    {
      "inputs": [
        {
          "internalType": "address",
          "name": "owner",
          "type": "address"
        }
      ],
      "name": "OwnableInvalidOwner",
      "type": "error"
    },
    {
      "inputs": [
        {
          "internalType": "address",
          "name": "account",
          "type": "address"
        }
      ],
      "name": "OwnableUnauthorizedAccount",
      "type": "error"
    },
    {
      "inputs": [],
      "name": "ReentrancyGuardReentrantCall",
      "type": "error"
    },
    {
      "anonymous": false,
      "inputs": [
        {
          "indexed": true,
          "internalType": "address",
          "name": "account",
          "type": "address"
        },
        {
          "indexed": true,
          "internalType": "address",
          "name": "operator",
          "type": "address"
        },
        {
          "indexed": false,
          "internalType": "bool",
          "name": "approved",
          "type": "bool"
        }
      ],
      "name": "ApprovalForAll",
      "type": "event"
    },
    {
      "anonymous": false,
      "inputs": [
        {
          "indexed": true,
          "internalType": "address",
          "name": "student",
          "type": "address"
        },
        {
          "indexed": false,
          "internalType": "uint256",
          "name": "amount",
          "type": "uint256"
        },
        {
          "indexed": false,
          "internalType": "uint256",
          "name": "timestamp",
          "type": "uint256"
        }
      ],
      "name": "MealRedeemed",
      "type": "event"
    },
    {
      "anonymous": false,
      "inputs": [
        {
          "indexed": true,
          "internalType": "address",
          "name": "previousOwner",
          "type": "address"
        },
        {
          "indexed": true,
          "internalType": "address",
          "name": "newOwner",
          "type": "address"
        }
      ],
      "name": "OwnershipTransferred",
      "type": "event"
    },
    {
      "anonymous": false,
      "inputs": [
        {
          "indexed": true,
          "internalType": "address",
          "name": "admin",
          "type": "address"
        },
        {
          "indexed": true,
          "internalType": "address",
          "name": "to",
          "type": "address"
        },
        {
          "indexed": false,
          "internalType": "uint256",
          "name": "amount",
          "type": "uint256"
        },
        {
          "indexed": false,
          "internalType": "uint256",
          "name": "timestamp",
          "type": "uint256"
        }
      ],
      "name": "TokensMinted",
      "type": "event"
    },
    {
      "anonymous": false,
      "inputs": [
        {
          "indexed": true,
          "internalType": "address",
          "name": "operator",
          "type": "address"
        },
        {
          "indexed": true,
          "internalType": "address",
          "name": "from",
          "type": "address"
        },
        {
          "indexed": true,
          "internalType": "address",
          "name": "to",
          "type": "address"
        },
        {
          "indexed": false,
          "internalType": "uint256[]",
          "name": "ids",
          "type": "uint256[]"
        },
        {
          "indexed": false,
          "internalType": "uint256[]",
          "name": "values",
          "type": "uint256[]"
        }
      ],
      "name": "TransferBatch",
      "type": "event"
    },
    {
      "anonymous": false,
      "inputs": [
        {
          "indexed": true,
          "internalType": "address",
          "name": "operator",
          "type": "address"
        },
        {
          "indexed": true,
          "internalType": "address",
          "name": "from",
          "type": "address"
        },
        {
          "indexed": true,
          "internalType": "address",
          "name": "to",
          "type": "address"
        },
        {
          "indexed": false,
          "internalType": "uint256",
          "name": "id",
          "type": "uint256"
        },
        {
          "indexed": false,
          "internalType": "uint256",
          "name": "value",
          "type": "uint256"
        }
      ],
      "name": "TransferSingle",
      "type": "event"
    },
    {
      "anonymous": false,
      "inputs": [
        {
          "indexed": false,
          "internalType": "string",
          "name": "value",
          "type": "string"
        },
        {
          "indexed": true,
          "internalType": "uint256",
          "name": "id",
          "type": "uint256"
        }
      ],
      "name": "URI",
      "type": "event"
    },
    {
      "inputs": [],
      "name": "MEAL_TOKEN_ID",
      "outputs": [
        {
          "internalType": "uint256",
          "name": "",
          "type": "uint256"
        }
      ],
      "stateMutability": "view",
      "type": "function"
    },
    {
      "inputs": [
        {
          "internalType": "address",
          "name": "account",
          "type": "address"
        },
        {
          "internalType": "uint256",
          "name": "id",
          "type": "uint256"
        }
      ],
      "name": "balanceOf",
      "outputs": [
        {
          "internalType": "uint256",
          "name": "",
          "type": "uint256"
        }
      ],
      "stateMutability": "view",
      "type": "function"
    },
    {
      "inputs": [
        {
          "internalType": "address[]",
          "name": "accounts",
          "type": "address[]"
        },
        {
          "internalType": "uint256[]",
          "name": "ids",
          "type": "uint256[]"
        }
      ],
      "name": "balanceOfBatch",
      "outputs": [
        {
          "internalType": "uint256[]",
          "name": "",
          "type": "uint256[]"
        }
      ],
      "stateMutability": "view",
      "type": "function"
    },
    {
      "inputs": [
        {
          "internalType": "address",
          "name": "account",
          "type": "address"
        },
        {
          "internalType": "address",
          "name": "operator",
          "type": "address"
        }
      ],
      "name": "isApprovedForAll",
      "outputs": [
        {
          "internalType": "bool",
          "name": "",
          "type": "bool"
        }
      ],
      "stateMutability": "view",
      "type": "function"
    },
    {
      "inputs": [
        {
          "internalType": "address",
          "name": "to",
          "type": "address"
        },
        {
          "internalType": "uint256",
          "name": "amount",
          "type": "uint256"
        }
      ],
      "name": "mint",
      "outputs": [],
      "stateMutability": "nonpayable",
      "type": "function"
    },
    {
      "inputs": [],
      "name": "owner",
      "outputs": [
        {
          "internalType": "address",
          "name": "",
          "type": "address"
        }
      ],
      "stateMutability": "view",
      "type": "function"
    },
    {
      "inputs": [
        {
          "internalType": "uint256",
          "name": "amount",
          "type": "uint256"
        }
      ],
      "name": "redeemMeal",
      "outputs": [],
      "stateMutability": "nonpayable",
      "type": "function"
    },
    {
      "inputs": [],
      "name": "renounceOwnership",
      "outputs": [],
      "stateMutability": "nonpayable",
      "type": "function"
    },
    {
      "inputs": [
        {
          "internalType": "address",
          "name": "tokenAddress",
          "type": "address"
        },
        {
          "internalType": "uint256",
          "name": "amount",
          "type": "uint256"
        }
      ],
      "name": "rescueERC20",
      "outputs": [],
      "stateMutability": "nonpayable",
      "type": "function"
    },
    {
      "inputs": [
        {
          "internalType": "address",
          "name": "from",
          "type": "address"
        },
        {
          "internalType": "address",
          "name": "to",
          "type": "address"
        },
        {
          "internalType": "uint256[]",
          "name": "ids",
          "type": "uint256[]"
        },
        {
          "internalType": "uint256[]",
          "name": "values",
          "type": "uint256[]"
        },
        {
          "internalType": "bytes",
          "name": "data",
          "type": "bytes"
        }
      ],
      "name": "safeBatchTransferFrom",
      "outputs": [],
      "stateMutability": "nonpayable",
      "type": "function"
    },
    {
      "inputs": [
        {
          "internalType": "address",
          "name": "from",
          "type": "address"
        },
        {
          "internalType": "address",
          "name": "to",
          "type": "address"
        },
        {
          "internalType": "uint256",
          "name": "id",
          "type": "uint256"
        },
        {
          "internalType": "uint256",
          "name": "value",
          "type": "uint256"
        },
        {
          "internalType": "bytes",
          "name": "data",
          "type": "bytes"
        }
      ],
      "name": "safeTransferFrom",
      "outputs": [],
      "stateMutability": "nonpayable",
      "type": "function"
    },
    {
      "inputs": [
        {
          "internalType": "address",
          "name": "operator",
          "type": "address"
        },
        {
          "internalType": "bool",
          "name": "approved",
          "type": "bool"
        }
      ],
      "name": "setApprovalForAll",
      "outputs": [],
      "stateMutability": "nonpayable",
      "type": "function"
    },
    {
      "inputs": [
        {
          "internalType": "string",
          "name": "newBaseURI",
          "type": "string"
        }
      ],
      "name": "setBaseTokenURI",
      "outputs": [],
      "stateMutability": "nonpayable",
      "type": "function"
    },
    {
      "inputs": [
        {
          "internalType": "bytes4",
          "name": "interfaceId",
          "type": "bytes4"
        }
      ],
      "name": "supportsInterface",
      "outputs": [
        {
          "internalType": "bool",
          "name": "",
          "type": "bool"
        }
      ],
      "stateMutability": "view",
      "type": "function"
    },
    {
      "inputs": [
        {
          "internalType": "address",
          "name": "newOwner",
          "type": "address"
        }
      ],
      "name": "transferOwnership",
      "outputs": [],
      "stateMutability": "nonpayable",
      "type": "function"
    },
    {
      "inputs": [
        {
          "internalType": "uint256",
          "name": "",
          "type": "uint256"
        }
      ],
      "name": "uri",
      "outputs": [
        {
          "internalType": "string",
          "name": "",
          "type": "string"
        }
      ],
      "stateMutability": "view",
      "type": "function"
    }
  ],
  "bytecode": "0x60806040526040518060400160405280601a81526020017f697066733a2f2f516d596f75724d65746164617461486173682f000000000000815250600590816200004a91906200048c565b503480156200005857600080fd5b50604051620034323803806200343283398181016040528101906200007e9190620005dd565b8060405180602001604052806000815250620000a0816200013760201b60201c565b50600073ffffffffffffffffffffffffffffffffffffffff168173ffffffffffffffffffffffffffffffffffffffff1603620001165760006040517f1e4fbdf70000000000000000000000000000000000000000000000000000000081526004016200010d919062000620565b60405180910390fd5b62000127816200014c60201b60201c565b506001600481905550506200063d565b80600290816200014891906200048c565b5050565b6000600360009054906101000a900473ffffffffffffffffffffffffffffffffffffffff16905081600360006101000a81548173ffffffffffffffffffffffffffffffffffffffff021916908373ffffffffffffffffffffffffffffffffffffffff1602179055508173ffffffffffffffffffffffffffffffffffffffff168173ffffffffffffffffffffffffffffffffffffffff167f8be0079c531659141344cd1fd0a4f28419497f9722a3daafe3b4186f6b6457e060405160405180910390a35050565b600081519050919050565b7f4e487b7100000000000000000000000000000000000000000000000000000000600052604160045260246000fd5b7f4e487b7100000000000000000000000000000000000000000000000000000000600052602260045260246000fd5b600060028204905060018216806200029457607f821691505b602082108103620002aa57620002a96200024c565b5b50919050565b60008190508160005260206000209050919050565b60006020601f8301049050919050565b600082821b905092915050565b600060088302620003147fffffffffffffffffffffffffffffffffffffffffffffffffffffffffffffffff82620002d5565b620003208683620002d5565b95508019841693508086168417925050509392505050565b6000819050919050565b6000819050919050565b60006200036d62000367620003618462000338565b62000342565b62000338565b9050919050565b6000819050919050565b62000389836200034c565b620003a1620003988262000374565b848454620002e2565b825550505050565b600090565b620003b8620003a9565b620003c58184846200037e565b505050565b5b81811015620003ed57620003e1600082620003ae565b600181019050620003cb565b5050565b601f8211156200043c576200040681620002b0565b6200041184620002c5565b8101602085101562000421578190505b620004396200043085620002c5565b830182620003ca565b50505b505050565b600082821c905092915050565b6000620004616000198460080262000441565b1980831691505092915050565b60006200047c83836200044e565b9150826002028217905092915050565b620004978262000212565b67ffffffffffffffff811115620004b357620004b26200021d565b5b620004bf82546200027b565b620004cc828285620003f1565b600060209050601f831160018114620005045760008415620004ef578287015190505b620004fb85826200046e565b8655506200056b565b601f1984166200051486620002b0565b60005b828110156200053e5784890151825560018201915060208501945060208101905062000517565b868310156200055e57848901516200055a601f8916826200044e565b8355505b6001600288020188555050505b505050505050565b600080fd5b600073ffffffffffffffffffffffffffffffffffffffff82169050919050565b6000620005a58262000578565b9050919050565b620005b78162000598565b8114620005c357600080fd5b50565b600081519050620005d781620005ac565b92915050565b600060208284031215620005f657620005f562000573565b5b60006200060684828501620005c6565b91505092915050565b6200061a8162000598565b82525050565b60006020820190506200063760008301846200060f565b92915050565b612de5806200064d6000396000f3fe608060405234801561001057600080fd5b50600436106100ff5760003560e01c8063715018a611610097578063bb30670311610066578063bb30670314610294578063e985e9c5146102b2578063f242432a146102e2578063f2fde38b146102fe576100ff565b8063715018a6146102345780638cd4426d1461023e5780638da5cb5b1461025a578063a22cb46514610278576100ff565b806330176e13116100d357806330176e13146101b057806337cb4c8c146101cc57806340c10f19146101e85780634e1273f414610204576100ff565b8062fdd58e1461010457806301ffc9a7146101345780630e89341c146101645780632eb2c2d614610194575b600080fd5b61011e60048036038101906101199190611c13565b61031a565b60405161012b9190611c62565b60405180910390f35b61014e60048036038101906101499190611cd5565b610374565b60405161015b9190611d1d565b60405180910390f35b61017e60048036038101906101799190611d38565b610456565b60405161018b9190611df5565b60405180910390f35b6101ae60048036038101906101a99190612014565b6104ea565b005b6101ca60048036038101906101c5919061213e565b610592565b005b6101e660048036038101906101e19190611d38565b6105b0565b005b61020260048036038101906101fd9190611c13565b6106af565b005b61021e6004803603810190610219919061224e565b6107f0565b60405161022b9190612384565b60405180910390f35b61023c6108ff565b005b61025860048036038101906102539190611c13565b610913565b005b610262610a82565b60405161026f91906123b5565b60405180910390f35b610292600480360381019061028d91906123fc565b610aac565b005b61029c610ac2565b6040516102a99190611c62565b60405180910390f35b6102cc60048036038101906102c7919061243c565b610ac7565b6040516102d99190611d1d565b60405180910390f35b6102fc60048036038101906102f7919061247c565b610b5b565b005b61031860048036038101906103139190612513565b610c03565b005b600080600083815260200190815260200160002060008473ffffffffffffffffffffffffffffffffffffffff1673ffffffffffffffffffffffffffffffffffffffff16815260200190815260200160002054905092915050565b60007fd9b67a26000000000000000000000000000000000000000000000000000000007bffffffffffffffffffffffffffffffffffffffffffffffffffffffff1916827bffffffffffffffffffffffffffffffffffffffffffffffffffffffff1916148061043f57507f0e89341c000000000000000000000000000000000000000000000000000000007bffffffffffffffffffffffffffffffffffffffffffffffffffffffff1916827bffffffffffffffffffffffffffffffffffffffffffffffffffffffff1916145b8061044f575061044e82610c89565b5b9050919050565b6060600580546104659061256f565b80601f01602080910402602001604051908101604052809291908181526020018280546104919061256f565b80156104de5780601f106104b3576101008083540402835291602001916104de565b820191906000526020600020905b8154815290600101906020018083116104c157829003601f168201915b50505050509050919050565b60006104f4610cf3565b90508073ffffffffffffffffffffffffffffffffffffffff168673ffffffffffffffffffffffffffffffffffffffff161415801561053957506105378682610ac7565b155b1561057d5780866040517fe237d9220000000000000000000000000000000000000000000000000000000081526004016105749291906125a0565b60405180910390fd5b61058a8686868686610cfb565b505050505050565b61059a610df3565b8181600591826105ab929190612780565b505050565b6105b8610e7a565b600081116105fb576040517f08c379a00000000000000000000000000000000000000000000000000000000081526004016105f29061289c565b60405180910390fd5b8061060733600161031a565b1015610648576040517f08c379a000000000000000000000000000000000000000000000000000000000815260040161063f90612908565b60405180910390fd5b61065433600183610ec0565b3373ffffffffffffffffffffffffffffffffffffffff167f11860c8288bc2f6ffac56d50933abbcad25d988124ee45b89a160003fa87ee13824260405161069c929190612928565b60405180910390a26106ac610f67565b50565b6106b7610df3565b600073ffffffffffffffffffffffffffffffffffffffff168273ffffffffffffffffffffffffffffffffffffffff1603610726576040517f08c379a000000000000000000000000000000000000000000000000000000000815260040161071d9061299d565b60405180910390fd5b60008111610769576040517f08c379a00000000000000000000000000000000000000000000000000000000081526004016107609061289c565b60405180910390fd5b6107858260018360405180602001604052806000815250610f71565b8173ffffffffffffffffffffffffffffffffffffffff163373ffffffffffffffffffffffffffffffffffffffff167fe456f0d575ef17126ead0c00ffd703adb3aa7b837d5b32ae967c707f804fa86783426040516107e4929190612928565b60405180910390a35050565b6060815183511461083c57815183516040517f5b059991000000000000000000000000000000000000000000000000000000008152600401610833929190612928565b60405180910390fd5b6000835167ffffffffffffffff81111561085957610858611e1c565b5b6040519080825280602002602001820160405280156108875781602001602082028036833780820191505090505b50905060005b84518110156108f4576108c46108ac828761100a90919063ffffffff16565b6108bf838761101e90919063ffffffff16565b61031a565b8282815181106108d7576108d66129bd565b5b602002602001018181525050806108ed90612a1b565b905061088d565b508091505092915050565b610907610df3565b6109116000611032565b565b61091b610df3565b600073ffffffffffffffffffffffffffffffffffffffff168273ffffffffffffffffffffffffffffffffffffffff160361098a576040517f08c379a000000000000000000000000000000000000000000000000000000000815260040161098190612aaf565b60405180910390fd5b3073ffffffffffffffffffffffffffffffffffffffff168273ffffffffffffffffffffffffffffffffffffffff16036109f8576040517f08c379a00000000000000000000000000000000000000000000000000000000081526004016109ef90612b1b565b60405180910390fd5b8173ffffffffffffffffffffffffffffffffffffffff1663a9059cbb610a1c610a82565b836040518363ffffffff1660e01b8152600401610a3a929190612b3b565b6020604051808303816000875af1158015610a59573d6000803e3d6000fd5b505050506040513d601f19601f82011682018060405250810190610a7d9190612b79565b505050565b6000600360009054906101000a900473ffffffffffffffffffffffffffffffffffffffff16905090565b610abe610ab7610cf3565b83836110f8565b5050565b600181565b6000600160008473ffffffffffffffffffffffffffffffffffffffff1673ffffffffffffffffffffffffffffffffffffffff16815260200190815260200160002060008373ffffffffffffffffffffffffffffffffffffffff1673ffffffffffffffffffffffffffffffffffffffff16815260200190815260200160002060009054906101000a900460ff16905092915050565b6000610b65610cf3565b90508073ffffffffffffffffffffffffffffffffffffffff168673ffffffffffffffffffffffffffffffffffffffff1614158015610baa5750610ba88682610ac7565b155b15610bee5780866040517fe237d922000000000000000000000000000000000000000000000000000000008152600401610be59291906125a0565b60405180910390fd5b610bfb8686868686611268565b505050505050565b610c0b610df3565b600073ffffffffffffffffffffffffffffffffffffffff168173ffffffffffffffffffffffffffffffffffffffff1603610c7d5760006040517f1e4fbdf7000000000000000000000000000000000000000000000000000000008152600401610c7491906123b5565b60405180910390fd5b610c8681611032565b50565b60007f01ffc9a7000000000000000000000000000000000000000000000000000000007bffffffffffffffffffffffffffffffffffffffffffffffffffffffff1916827bffffffffffffffffffffffffffffffffffffffffffffffffffffffff1916149050919050565b600033905090565b600073ffffffffffffffffffffffffffffffffffffffff168473ffffffffffffffffffffffffffffffffffffffff1603610d6d5760006040517f57f447ce000000000000000000000000000000000000000000000000000000008152600401610d6491906123b5565b60405180910390fd5b600073ffffffffffffffffffffffffffffffffffffffff168573ffffffffffffffffffffffffffffffffffffffff1603610ddf5760006040517f01a83514000000000000000000000000000000000000000000000000000000008152600401610dd691906123b5565b60405180910390fd5b610dec8585858585611373565b5050505050565b610dfb610cf3565b73ffffffffffffffffffffffffffffffffffffffff16610e19610a82565b73ffffffffffffffffffffffffffffffffffffffff1614610e7857610e3c610cf3565b6040517f118cdaa7000000000000000000000000000000000000000000000000000000008152600401610e6f91906123b5565b60405180910390fd5b565b600260045403610eb6576040517f3ee5aeb500000000000000000000000000000000000000000000000000000000815260040160405180910390fd5b6002600481905550565b600073ffffffffffffffffffffffffffffffffffffffff168373ffffffffffffffffffffffffffffffffffffffff1603610f325760006040517f01a83514000000000000000000000000000000000000000000000000000000008152600401610f2991906123b5565b60405180910390fd5b600080610f3f8484611425565b91509150610f60856000848460405180602001604052806000815250611373565b5050505050565b6001600481905550565b600073ffffffffffffffffffffffffffffffffffffffff168473ffffffffffffffffffffffffffffffffffffffff1603610fe35760006040517f57f447ce000000000000000000000000000000000000000000000000000000008152600401610fda91906123b5565b60405180910390fd5b600080610ff08585611425565b91509150611002600087848487611373565b505050505050565b600060208202602084010151905092915050565b600060208202602084010151905092915050565b6000600360009054906101000a900473ffffffffffffffffffffffffffffffffffffffff16905081600360006101000a81548173ffffffffffffffffffffffffffffffffffffffff021916908373ffffffffffffffffffffffffffffffffffffffff1602179055508173ffffffffffffffffffffffffffffffffffffffff168173ffffffffffffffffffffffffffffffffffffffff167f8be0079c531659141344cd1fd0a4f28419497f9722a3daafe3b4186f6b6457e060405160405180910390a35050565b600073ffffffffffffffffffffffffffffffffffffffff168273ffffffffffffffffffffffffffffffffffffffff160361116a5760006040517fced3e10000000000000000000000000000000000000000000000000000000000815260040161116191906123b5565b60405180910390fd5b80600160008573ffffffffffffffffffffffffffffffffffffffff1673ffffffffffffffffffffffffffffffffffffffff16815260200190815260200160002060008473ffffffffffffffffffffffffffffffffffffffff1673ffffffffffffffffffffffffffffffffffffffff16815260200190815260200160002060006101000a81548160ff0219169083151502179055508173ffffffffffffffffffffffffffffffffffffffff168373ffffffffffffffffffffffffffffffffffffffff167f17307eab39ab6107e8899845ad3d59bd9653f200f220920489ca2b5937696c318360405161125b9190611d1d565b60405180910390a3505050565b600073ffffffffffffffffffffffffffffffffffffffff168473ffffffffffffffffffffffffffffffffffffffff16036112da5760006040517f57f447ce0000000000000000000000000000000000000000000000000000000081526004016112d191906123b5565b60405180910390fd5b600073ffffffffffffffffffffffffffffffffffffffff168573ffffffffffffffffffffffffffffffffffffffff160361134c5760006040517f01a8351400000000000000000000000000000000000000000000000000000000815260040161134391906123b5565b60405180910390fd5b6000806113598585611425565b9150915061136a8787848487611373565b50505050505050565b61137f85858585611455565b600073ffffffffffffffffffffffffffffffffffffffff168473ffffffffffffffffffffffffffffffffffffffff161461141e5760006113bd610cf3565b9050600184510361140d5760006113de60008661101e90919063ffffffff16565b905060006113f660008661101e90919063ffffffff16565b9050611406838989858589611803565b505061141c565b61141b8187878787876119b7565b5b505b5050505050565b60608060405191506001825283602083015260408201905060018152826020820152604081016040529250929050565b805182511461149f57815181516040517f5b059991000000000000000000000000000000000000000000000000000000008152600401611496929190612928565b60405180910390fd5b60006114a9610cf3565b905060005b83518110156116be5760006114cc828661101e90919063ffffffff16565b905060006114e3838661101e90919063ffffffff16565b9050600073ffffffffffffffffffffffffffffffffffffffff168873ffffffffffffffffffffffffffffffffffffffff161461161057600080600084815260200190815260200160002060008a73ffffffffffffffffffffffffffffffffffffffff1673ffffffffffffffffffffffffffffffffffffffff168152602001908152602001600020549050818110156115b857888183856040517f03dee4c50000000000000000000000000000000000000000000000000000000081526004016115af9493929190612ba6565b60405180910390fd5b81810360008085815260200190815260200160002060008b73ffffffffffffffffffffffffffffffffffffffff1673ffffffffffffffffffffffffffffffffffffffff16815260200190815260200160002081905550505b600073ffffffffffffffffffffffffffffffffffffffff168773ffffffffffffffffffffffffffffffffffffffff16146116ab578060008084815260200190815260200160002060008973ffffffffffffffffffffffffffffffffffffffff1673ffffffffffffffffffffffffffffffffffffffff16815260200190815260200160002060008282546116a39190612beb565b925050819055505b5050806116b790612a1b565b90506114ae565b50600183510361177d5760006116de60008561101e90919063ffffffff16565b905060006116f660008561101e90919063ffffffff16565b90508573ffffffffffffffffffffffffffffffffffffffff168773ffffffffffffffffffffffffffffffffffffffff168473ffffffffffffffffffffffffffffffffffffffff167fc3d58168c5ae7397731d063d5bbf3d657854427343f4c083240f7aacaa2d0f62858560405161176e929190612928565b60405180910390a450506117fc565b8373ffffffffffffffffffffffffffffffffffffffff168573ffffffffffffffffffffffffffffffffffffffff168273ffffffffffffffffffffffffffffffffffffffff167f4a39dc06d4c0dbc64b70af90fd698a233a518aa5d07e595d983b8c0526c8f7fb86866040516117f3929190612c1f565b60405180910390a45b5050505050565b60008473ffffffffffffffffffffffffffffffffffffffff163b11156119af578373ffffffffffffffffffffffffffffffffffffffff1663f23a6e6187878686866040518663ffffffff1660e01b8152600401611864959493929190612cab565b6020604051808303816000875af19250505080156118a057506040513d601f19601f8201168201806040525081019061189d9190612d1a565b60015b611924573d80600081146118d0576040519150601f19603f3d011682016040523d82523d6000602084013e6118d5565b606091505b50600081510361191c57846040517f57f447ce00000000000000000000000000000000000000000000000000000000815260040161191391906123b5565b60405180910390fd5b805160208201fd5b63f23a6e6160e01b7bffffffffffffffffffffffffffffffffffffffffffffffffffffffff1916817bffffffffffffffffffffffffffffffffffffffffffffffffffffffff1916146119ad57846040517f57f447ce0000000000000000000000000000000000000000000000000000000081526004016119a491906123b5565b60405180910390fd5b505b505050505050565b60008473ffffffffffffffffffffffffffffffffffffffff163b1115611b63578373ffffffffffffffffffffffffffffffffffffffff1663bc197c8187878686866040518663ffffffff1660e01b8152600401611a18959493929190612d47565b6020604051808303816000875af1925050508015611a5457506040513d601f19601f82011682018060405250810190611a519190612d1a565b60015b611ad8573d8060008114611a84576040519150601f19603f3d011682016040523d82523d6000602084013e611a89565b606091505b506000815103611ad057846040517f57f447ce000000000000000000000000000000000000000000000000000000008152600401611ac791906123b5565b60405180910390fd5b805160208201fd5b63bc197c8160e01b7bffffffffffffffffffffffffffffffffffffffffffffffffffffffff1916817bffffffffffffffffffffffffffffffffffffffffffffffffffffffff191614611b6157846040517f57f447ce000000000000000000000000000000000000000000000000000000008152600401611b5891906123b5565b60405180910390fd5b505b505050505050565b6000604051905090565b600080fd5b600080fd5b600073ffffffffffffffffffffffffffffffffffffffff82169050919050565b6000611baa82611b7f565b9050919050565b611bba81611b9f565b8114611bc557600080fd5b50565b600081359050611bd781611bb1565b92915050565b6000819050919050565b611bf081611bdd565b8114611bfb57600080fd5b50565b600081359050611c0d81611be7565b92915050565b60008060408385031215611c2a57611c29611b75565b5b6000611c3885828601611bc8565b9250506020611c4985828601611bfe565b9150509250929050565b611c5c81611bdd565b82525050565b6000602082019050611c776000830184611c53565b92915050565b60007fffffffff0000000000000000000000000000000000000000000000000000000082169050919050565b611cb281611c7d565b8114611cbd57600080fd5b50565b600081359050611ccf81611ca9565b92915050565b600060208284031215611ceb57611cea611b75565b5b6000611cf984828501611cc0565b91505092915050565b60008115159050919050565b611d1781611d02565b82525050565b6000602082019050611d326000830184611d0e565b92915050565b600060208284031215611d4e57611d4d611b75565b5b6000611d5c84828501611bfe565b91505092915050565b600081519050919050565b600082825260208201905092915050565b60005b83811015611d9f578082015181840152602081019050611d84565b60008484015250505050565b6000601f19601f8301169050919050565b6000611dc782611d65565b611dd18185611d70565b9350611de1818560208601611d81565b611dea81611dab565b840191505092915050565b60006020820190508181036000830152611e0f8184611dbc565b905092915050565b600080fd5b7f4e487b7100000000000000000000000000000000000000000000000000000000600052604160045260246000fd5b611e5482611dab565b810181811067ffffffffffffffff82111715611e7357611e72611e1c565b5b80604052505050565b6000611e86611b6b565b9050611e928282611e4b565b919050565b600067ffffffffffffffff821115611eb257611eb1611e1c565b5b602082029050602081019050919050565b600080fd5b6000611edb611ed684611e97565b611e7c565b90508083825260208201905060208402830185811115611efe57611efd611ec3565b5b835b81811015611f275780611f138882611bfe565b845260208401935050602081019050611f00565b5050509392505050565b600082601f830112611f4657611f45611e17565b5b8135611f56848260208601611ec8565b91505092915050565b600080fd5b600067ffffffffffffffff821115611f7f57611f7e611e1c565b5b611f8882611dab565b9050602081019050919050565b82818337600083830152505050565b6000611fb7611fb284611f64565b611e7c565b905082815260208101848484011115611fd357611fd2611f5f565b5b611fde848285611f95565b509392505050565b600082601f830112611ffb57611ffa611e17565b5b813561200b848260208601611fa4565b91505092915050565b600080600080600060a086880312156120305761202f611b75565b5b600061203e88828901611bc8565b955050602061204f88828901611bc8565b945050604086013567ffffffffffffffff8111156120705761206f611b7a565b5b61207c88828901611f31565b935050606086013567ffffffffffffffff81111561209d5761209c611b7a565b5b6120a988828901611f31565b925050608086013567ffffffffffffffff8111156120ca576120c9611b7a565b5b6120d688828901611fe6565b9150509295509295909350565b600080fd5b60008083601f8401126120fe576120fd611e17565b5b8235905067ffffffffffffffff81111561211b5761211a6120e3565b5b60208301915083600182028301111561213757612136611ec3565b5b9250929050565b6000806020838503121561215557612154611b75565b5b600083013567ffffffffffffffff81111561217357612172611b7a565b5b61217f858286016120e8565b92509250509250929050565b600067ffffffffffffffff8211156121a6576121a5611e1c565b5b602082029050602081019050919050565b60006121ca6121c58461218b565b611e7c565b905080838252602082019050602084028301858111156121ed576121ec611ec3565b5b835b8181101561221657806122028882611bc8565b8452602084019350506020810190506121ef565b5050509392505050565b600082601f83011261223557612234611e17565b5b81356122458482602086016121b7565b91505092915050565b6000806040838503121561226557612264611b75565b5b600083013567ffffffffffffffff81111561228357612282611b7a565b5b61228f85828601612220565b925050602083013567ffffffffffffffff8111156122b0576122af611b7a565b5b6122bc85828601611f31565b9150509250929050565b600081519050919050565b600082825260208201905092915050565b6000819050602082019050919050565b6122fb81611bdd565b82525050565b600061230d83836122f2565b60208301905092915050565b6000602082019050919050565b6000612331826122c6565b61233b81856122d1565b9350612346836122e2565b8060005b8381101561237757815161235e8882612301565b975061236983612319565b92505060018101905061234a565b5085935050505092915050565b6000602082019050818103600083015261239e8184612326565b905092915050565b6123af81611b9f565b82525050565b60006020820190506123ca60008301846123a6565b92915050565b6123d981611d02565b81146123e457600080fd5b50565b6000813590506123f6816123d0565b92915050565b6000806040838503121561241357612412611b75565b5b600061242185828601611bc8565b9250506020612432858286016123e7565b9150509250929050565b6000806040838503121561245357612452611b75565b5b600061246185828601611bc8565b925050602061247285828601611bc8565b9150509250929050565b600080600080600060a0868803121561249857612497611b75565b5b60006124a688828901611bc8565b95505060206124b788828901611bc8565b94505060406124c888828901611bfe565b93505060606124d988828901611bfe565b925050608086013567ffffffffffffffff8111156124fa576124f9611b7a565b5b61250688828901611fe6565b9150509295509295909350565b60006020828403121561252957612528611b75565b5b600061253784828501611bc8565b91505092915050565b7f4e487b7100000000000000000000000000000000000000000000000000000000600052602260045260246000fd5b6000600282049050600182168061258757607f821691505b60208210810361259a57612599612540565b5b50919050565b60006040820190506125b560008301856123a6565b6125c260208301846123a6565b9392505050565b600082905092915050565b60008190508160005260206000209050919050565b60006020601f8301049050919050565b600082821b905092915050565b6000600883026126367fffffffffffffffffffffffffffffffffffffffffffffffffffffffffffffffff826125f9565b61264086836125f9565b95508019841693508086168417925050509392505050565b6000819050919050565b600061267d61267861267384611bdd565b612658565b611bdd565b9050919050565b6000819050919050565b61269783612662565b6126ab6126a382612684565b848454612606565b825550505050565b600090565b6126c06126b3565b6126cb81848461268e565b505050565b5b818110156126ef576126e46000826126b8565b6001810190506126d1565b5050565b601f82111561273457612705816125d4565b61270e846125e9565b8101602085101561271d578190505b612731612729856125e9565b8301826126d0565b50505b505050565b600082821c905092915050565b600061275760001984600802612739565b1980831691505092915050565b60006127708383612746565b9150826002028217905092915050565b61278a83836125c9565b67ffffffffffffffff8111156127a3576127a2611e1c565b5b6127ad825461256f565b6127b88282856126f3565b6000601f8311600181146127e757600084156127d5578287013590505b6127df8582612764565b865550612847565b601f1984166127f5866125d4565b60005b8281101561281d578489013582556001820191506020850194506020810190506127f8565b8683101561283a5784890135612836601f891682612746565b8355505b6001600288020188555050505b50505050505050565b7f416d6f756e74206d757374206265203e20300000000000000000000000000000600082015250565b6000612886601283611d70565b915061289182612850565b602082019050919050565b600060208201905081810360008301526128b581612879565b9050919050565b7f496e73756666696369656e74206d65616c20746f6b656e730000000000000000600082015250565b60006128f2601883611d70565b91506128fd826128bc565b602082019050919050565b60006020820190508181036000830152612921816128e5565b9050919050565b600060408201905061293d6000830185611c53565b61294a6020830184611c53565b9392505050565b7f496e76616c696420616464726573730000000000000000000000000000000000600082015250565b6000612987600f83611d70565b915061299282612951565b602082019050919050565b600060208201905081810360008301526129b68161297a565b9050919050565b7f4e487b7100000000000000000000000000000000000000000000000000000000600052603260045260246000fd5b7f4e487b7100000000000000000000000000000000000000000000000000000000600052601160045260246000fd5b6000612a2682611bdd565b91507fffffffffffffffffffffffffffffffffffffffffffffffffffffffffffffffff8203612a5857612a576129ec565b5b600182019050919050565b7f496e76616c696420746f6b656e00000000000000000000000000000000000000600082015250565b6000612a99600d83611d70565b9150612aa482612a63565b602082019050919050565b60006020820190508181036000830152612ac881612a8c565b9050919050565b7f43616e6e6f7420726573637565206e617469766520746f6b656e000000000000600082015250565b6000612b05601a83611d70565b9150612b1082612acf565b602082019050919050565b60006020820190508181036000830152612b3481612af8565b9050919050565b6000604082019050612b5060008301856123a6565b612b5d6020830184611c53565b9392505050565b600081519050612b73816123d0565b92915050565b600060208284031215612b8f57612b8e611b75565b5b6000612b9d84828501612b64565b91505092915050565b6000608082019050612bbb60008301876123a6565b612bc86020830186611c53565b612bd56040830185611c53565b612be26060830184611c53565b95945050505050565b6000612bf682611bdd565b9150612c0183611bdd565b9250828201905080821115612c1957612c186129ec565b5b92915050565b60006040820190508181036000830152612c398185612326565b90508181036020830152612c4d8184612326565b90509392505050565b600081519050919050565b600082825260208201905092915050565b6000612c7d82612c56565b612c878185612c61565b9350612c97818560208601611d81565b612ca081611dab565b840191505092915050565b600060a082019050612cc060008301886123a6565b612ccd60208301876123a6565b612cda6040830186611c53565b612ce76060830185611c53565b8181036080830152612cf98184612c72565b90509695505050505050565b600081519050612d1481611ca9565b92915050565b600060208284031215612d3057612d2f611b75565b5b6000612d3e84828501612d05565b91505092915050565b600060a082019050612d5c60008301886123a6565b612d6960208301876123a6565b8181036040830152612d7b8186612326565b90508181036060830152612d8f8185612326565b90508181036080830152612da38184612c72565b9050969550505050505056fea2646970667358221220fabb6a2183da61e057d72c47d5d8d2bea222d7b1c4458dc035e7dc774105e1e564736f6c63430008140033",
  "linkReferences": {},
  "deployedLinkReferences": {}
}